{
  "_format": "hh-sol-artifact-1",
  "contractName": "CatRace",
  "sourceName": "contracts/CatRace.sol",
  "abi": [
    {
      "inputs": [],
      "stateMutability": "nonpayable",
      "type": "constructor"
    },
    {
      "inputs": [
        {
          "internalType": "uint256",
          "name": "",
          "type": "uint256"
        }
      ],
      "name": "cats",
      "outputs": [
        {
          "internalType": "address",
          "name": "owner",
          "type": "address"
        },
        {
          "internalType": "uint256",
          "name": "bet",
          "type": "uint256"
        },
        {
          "internalType": "bool",
          "name": "isWinner",
          "type": "bool"
        }
      ],
      "stateMutability": "view",
      "type": "function"
    },
    {
      "inputs": [],
      "name": "enterRace",
      "outputs": [],
      "stateMutability": "payable",
      "type": "function"
    },
    {
      "inputs": [],
      "name": "getCats",
      "outputs": [
        {
          "components": [
            {
              "internalType": "address",
              "name": "owner",
              "type": "address"
            },
            {
              "internalType": "uint256",
              "name": "bet",
              "type": "uint256"
            },
            {
              "internalType": "bool",
              "name": "isWinner",
              "type": "bool"
            }
          ],
          "internalType": "struct CatRace.Cat[]",
          "name": "",
          "type": "tuple[]"
        }
      ],
      "stateMutability": "view",
      "type": "function"
    },
    {
      "inputs": [],
      "name": "owner",
      "outputs": [
        {
          "internalType": "address",
          "name": "",
          "type": "address"
        }
      ],
      "stateMutability": "view",
      "type": "function"
    },
    {
      "inputs": [],
      "name": "raceStarted",
      "outputs": [
        {
          "internalType": "bool",
          "name": "",
          "type": "bool"
        }
      ],
      "stateMutability": "view",
      "type": "function"
    },
    {
      "inputs": [],
      "name": "resetRace",
      "outputs": [],
      "stateMutability": "nonpayable",
      "type": "function"
    },
    {
      "inputs": [],
      "name": "startRace",
      "outputs": [],
      "stateMutability": "nonpayable",
      "type": "function"
    },
    {
      "inputs": [],
      "name": "totalBet",
      "outputs": [
        {
          "internalType": "uint256",
          "name": "",
          "type": "uint256"
        }
      ],
      "stateMutability": "view",
      "type": "function"
    },
    {
      "inputs": [],
      "name": "winnerIndex",
      "outputs": [
        {
          "internalType": "uint256",
          "name": "",
          "type": "uint256"
        }
      ],
      "stateMutability": "view",
      "type": "function"
    }
  ],
  "bytecode": "0x6080604052348015600f57600080fd5b5033600160006101000a81548173ffffffffffffffffffffffffffffffffffffffff021916908373ffffffffffffffffffffffffffffffffffffffff160217905550610ebb806100606000396000f3fe6080604052600436106100865760003560e01c80638d120df6116100595780638d120df61461010f5780638da5cb5b146101195780638f00cbfa14610144578063c6df962d1461016f578063fe5e1853146101ae57610086565b80632dab09f71461008b57806355051a53146100b65780636ad7ed47146100e1578063834a35e7146100f8575b600080fd5b34801561009757600080fd5b506100a06101d9565b6040516100ad91906109e4565b60405180910390f35b3480156100c257600080fd5b506100cb6102b3565b6040516100d89190610a15565b60405180910390f35b3480156100ed57600080fd5b506100f66102c6565b005b34801561010457600080fd5b5061010d61051d565b005b6101176105e7565b005b34801561012557600080fd5b5061012e610767565b60405161013b9190610a3f565b60405180910390f35b34801561015057600080fd5b5061015961078d565b6040516101669190610a69565b60405180910390f35b34801561017b57600080fd5b5061019660048036038101906101919190610ab5565b610793565b6040516101a593929190610ae2565b60405180910390f35b3480156101ba57600080fd5b506101c36107fa565b6040516101d09190610a69565b60405180910390f35b60606000805480602002602001604051908101604052809291908181526020016000905b828210156102aa57838290600052602060002090600302016040518060600160405290816000820160009054906101000a900473ffffffffffffffffffffffffffffffffffffffff1673ffffffffffffffffffffffffffffffffffffffff1673ffffffffffffffffffffffffffffffffffffffff168152602001600182015481526020016002820160009054906101000a900460ff161515151581525050815260200190600101906101fd565b50505050905090565b600160149054906101000a900460ff1681565b600160009054906101000a900473ffffffffffffffffffffffffffffffffffffffff1673ffffffffffffffffffffffffffffffffffffffff163373ffffffffffffffffffffffffffffffffffffffff1614610356576040517f08c379a000000000000000000000000000000000000000000000000000000000815260040161034d90610b76565b60405180910390fd5b600160149054906101000a900460ff16156103a6576040517f08c379a000000000000000000000000000000000000000000000000000000000815260040161039d90610be2565b60405180910390fd5b600260008054905010156103ef576040517f08c379a00000000000000000000000000000000000000000000000000000000081526004016103e690610c4e565b60405180910390fd5b60018060146101000a81548160ff0219169083151502179055506000805490504244604051602001610422929190610c8f565b6040516020818303038152906040528051906020012060001c6104459190610cea565b600381905550600160006003548154811061046357610462610d1b565b5b906000526020600020906003020160020160006101000a81548160ff0219169083151502179055506000600354815481106104a1576104a0610d1b565b5b906000526020600020906003020160000160009054906101000a900473ffffffffffffffffffffffffffffffffffffffff1673ffffffffffffffffffffffffffffffffffffffff166108fc6002549081150290604051600060405180830381858888f1935050505015801561051a573d6000803e3d6000fd5b50565b600160009054906101000a900473ffffffffffffffffffffffffffffffffffffffff1673ffffffffffffffffffffffffffffffffffffffff163373ffffffffffffffffffffffffffffffffffffffff16146105ad576040517f08c379a00000000000000000000000000000000000000000000000000000000081526004016105a490610d96565b60405180910390fd5b6000806105ba9190610800565b6000600160146101000a81548160ff02191690831515021790555060006002819055506000600381905550565b600160149054906101000a900460ff1615610637576040517f08c379a000000000000000000000000000000000000000000000000000000000815260040161062e90610be2565b60405180910390fd5b6000341161067a576040517f08c379a000000000000000000000000000000000000000000000000000000000815260040161067190610e02565b60405180910390fd5b600060405180606001604052803373ffffffffffffffffffffffffffffffffffffffff16815260200134815260200160001515815250908060018154018082558091505060019003906000526020600020906003020160009091909190915060008201518160000160006101000a81548173ffffffffffffffffffffffffffffffffffffffff021916908373ffffffffffffffffffffffffffffffffffffffff1602179055506020820151816001015560408201518160020160006101000a81548160ff0219169083151502179055505050346002600082825461075e9190610e51565b92505081905550565b600160009054906101000a900473ffffffffffffffffffffffffffffffffffffffff1681565b60035481565b600081815481106107a357600080fd5b90600052602060002090600302016000915090508060000160009054906101000a900473ffffffffffffffffffffffffffffffffffffffff16908060010154908060020160009054906101000a900460ff16905083565b60025481565b50805460008255600302906000526020600020908101906108219190610824565b50565b5b8082111561087a57600080820160006101000a81549073ffffffffffffffffffffffffffffffffffffffff021916905560018201600090556002820160006101000a81549060ff021916905550600301610825565b5090565b600081519050919050565b600082825260208201905092915050565b6000819050602082019050919050565b600073ffffffffffffffffffffffffffffffffffffffff82169050919050565b60006108d5826108aa565b9050919050565b6108e5816108ca565b82525050565b6000819050919050565b6108fe816108eb565b82525050565b60008115159050919050565b61091981610904565b82525050565b60608201600082015161093560008501826108dc565b50602082015161094860208501826108f5565b50604082015161095b6040850182610910565b50505050565b600061096d838361091f565b60608301905092915050565b6000602082019050919050565b60006109918261087e565b61099b8185610889565b93506109a68361089a565b8060005b838110156109d75781516109be8882610961565b97506109c983610979565b9250506001810190506109aa565b5085935050505092915050565b600060208201905081810360008301526109fe8184610986565b905092915050565b610a0f81610904565b82525050565b6000602082019050610a2a6000830184610a06565b92915050565b610a39816108ca565b82525050565b6000602082019050610a546000830184610a30565b92915050565b610a63816108eb565b82525050565b6000602082019050610a7e6000830184610a5a565b92915050565b600080fd5b610a92816108eb565b8114610a9d57600080fd5b50565b600081359050610aaf81610a89565b92915050565b600060208284031215610acb57610aca610a84565b5b6000610ad984828501610aa0565b91505092915050565b6000606082019050610af76000830186610a30565b610b046020830185610a5a565b610b116040830184610a06565b949350505050565b600082825260208201905092915050565b7f4f6e6c79206f776e65722063616e207374617274207468652072616365000000600082015250565b6000610b60601d83610b19565b9150610b6b82610b2a565b602082019050919050565b60006020820190508181036000830152610b8f81610b53565b9050919050565b7f5261636520616c72656164792073746172746564000000000000000000000000600082015250565b6000610bcc601483610b19565b9150610bd782610b96565b602082019050919050565b60006020820190508181036000830152610bfb81610bbf565b9050919050565b7f4e6f7420656e6f75676820636174730000000000000000000000000000000000600082015250565b6000610c38600f83610b19565b9150610c4382610c02565b602082019050919050565b60006020820190508181036000830152610c6781610c2b565b9050919050565b6000819050919050565b610c89610c84826108eb565b610c6e565b82525050565b6000610c9b8285610c78565b602082019150610cab8284610c78565b6020820191508190509392505050565b7f4e487b7100000000000000000000000000000000000000000000000000000000600052601260045260246000fd5b6000610cf5826108eb565b9150610d00836108eb565b925082610d1057610d0f610cbb565b5b828206905092915050565b7f4e487b7100000000000000000000000000000000000000000000000000000000600052603260045260246000fd5b7f4f6e6c79206f776e65722063616e207265736574000000000000000000000000600082015250565b6000610d80601483610b19565b9150610d8b82610d4a565b602082019050919050565b60006020820190508181036000830152610daf81610d73565b9050919050565b7f4d75737420706c61636520612062657400000000000000000000000000000000600082015250565b6000610dec601083610b19565b9150610df782610db6565b602082019050919050565b60006020820190508181036000830152610e1b81610ddf565b9050919050565b7f4e487b7100000000000000000000000000000000000000000000000000000000600052601160045260246000fd5b6000610e5c826108eb565b9150610e67836108eb565b9250828201905080821115610e7f57610e7e610e22565b5b9291505056fea2646970667358221220fb481ba83dd66a54442007c40e127e04e4cdac7191cfd7b2d48f3bb4ab57461264736f6c634300081c0033",
  "linkReferences": {},
  "deployedLinkReferences": {}
}